{
  "address": "0x9ffb419404a5b1b8551d0127Ed3562D9E622292E",
  "abi": [
    {
      "inputs": [
        {
          "internalType": "bytes32",
          "name": "_merkleRoot",
          "type": "bytes32"
        },
        {
          "internalType": "string",
          "name": "_baseTokenUri",
          "type": "string"
        },
        {
          "internalType": "uint256",
          "name": "_treasureQuantity",
          "type": "uint256"
        },
        {
          "internalType": "string",
          "name": "_name",
          "type": "string"
        },
        {
          "internalType": "string",
          "name": "_symbol",
          "type": "string"
        }
      ],
      "stateMutability": "nonpayable",
      "type": "constructor"
    },
    {
      "inputs": [],
      "name": "AlreadyMinted",
      "type": "error"
    },
    {
      "inputs": [],
      "name": "ApprovalCallerNotOwnerNorApproved",
      "type": "error"
    },
    {
      "inputs": [],
      "name": "ApprovalQueryForNonexistentToken",
      "type": "error"
    },
    {
      "inputs": [],
      "name": "ApprovalToCurrentOwner",
      "type": "error"
    },
    {
      "inputs": [],
      "name": "ApproveToCaller",
      "type": "error"
    },
    {
      "inputs": [],
      "name": "BalanceQueryForZeroAddress",
      "type": "error"
    },
    {
      "inputs": [],
      "name": "Locked",
      "type": "error"
    },
    {
      "inputs": [],
      "name": "MintToZeroAddress",
      "type": "error"
    },
    {
      "inputs": [],
      "name": "MintZeroQuantity",
      "type": "error"
    },
    {
      "inputs": [],
      "name": "NotAllowed",
      "type": "error"
    },
    {
      "inputs": [],
      "name": "OwnerQueryForNonexistentToken",
      "type": "error"
    },
    {
      "inputs": [],
      "name": "TransferCallerNotOwnerNorApproved",
      "type": "error"
    },
    {
      "inputs": [],
      "name": "TransferFromIncorrectOwner",
      "type": "error"
    },
    {
      "inputs": [],
      "name": "TransferToNonERC721ReceiverImplementer",
      "type": "error"
    },
    {
      "inputs": [],
      "name": "TransferToZeroAddress",
      "type": "error"
    },
    {
      "inputs": [],
      "name": "URIQueryForNonexistentToken",
      "type": "error"
    },
    {
      "anonymous": false,
      "inputs": [
        {
          "indexed": true,
          "internalType": "address",
          "name": "owner",
          "type": "address"
        },
        {
          "indexed": true,
          "internalType": "address",
          "name": "approved",
          "type": "address"
        },
        {
          "indexed": true,
          "internalType": "uint256",
          "name": "tokenId",
          "type": "uint256"
        }
      ],
      "name": "Approval",
      "type": "event"
    },
    {
      "anonymous": false,
      "inputs": [
        {
          "indexed": true,
          "internalType": "address",
          "name": "owner",
          "type": "address"
        },
        {
          "indexed": true,
          "internalType": "address",
          "name": "operator",
          "type": "address"
        },
        {
          "indexed": false,
          "internalType": "bool",
          "name": "approved",
          "type": "bool"
        }
      ],
      "name": "ApprovalForAll",
      "type": "event"
    },
    {
      "anonymous": false,
      "inputs": [
        {
          "indexed": true,
          "internalType": "address",
          "name": "previousOwner",
          "type": "address"
        },
        {
          "indexed": true,
          "internalType": "address",
          "name": "newOwner",
          "type": "address"
        }
      ],
      "name": "OwnershipTransferred",
      "type": "event"
    },
    {
      "anonymous": false,
      "inputs": [
        {
          "indexed": true,
          "internalType": "address",
          "name": "from",
          "type": "address"
        },
        {
          "indexed": true,
          "internalType": "address",
          "name": "to",
          "type": "address"
        },
        {
          "indexed": true,
          "internalType": "uint256",
          "name": "tokenId",
          "type": "uint256"
        }
      ],
      "name": "Transfer",
      "type": "event"
    },
    {
      "inputs": [
        {
          "internalType": "uint256",
          "name": "",
          "type": "uint256"
        },
        {
          "internalType": "address",
          "name": "",
          "type": "address"
        }
      ],
      "name": "addressMintedPerSeason",
      "outputs": [
        {
          "internalType": "bool",
          "name": "",
          "type": "bool"
        }
      ],
      "stateMutability": "view",
      "type": "function"
    },
    {
      "inputs": [
        {
          "internalType": "address",
          "name": "to",
          "type": "address"
        },
        {
          "internalType": "uint256",
          "name": "tokenId",
          "type": "uint256"
        }
      ],
      "name": "approve",
      "outputs": [],
      "stateMutability": "nonpayable",
      "type": "function"
    },
    {
      "inputs": [
        {
          "internalType": "address",
          "name": "owner",
          "type": "address"
        }
      ],
      "name": "balanceOf",
      "outputs": [
        {
          "internalType": "uint256",
          "name": "",
          "type": "uint256"
        }
      ],
      "stateMutability": "view",
      "type": "function"
    },
    {
      "inputs": [],
      "name": "baseTokenUri",
      "outputs": [
        {
          "internalType": "string",
          "name": "",
          "type": "string"
        }
      ],
      "stateMutability": "view",
      "type": "function"
    },
    {
      "inputs": [],
      "name": "currentSeason",
      "outputs": [
        {
          "internalType": "uint256",
          "name": "",
          "type": "uint256"
        }
      ],
      "stateMutability": "view",
      "type": "function"
    },
    {
      "inputs": [
        {
          "internalType": "uint256",
          "name": "tokenId",
          "type": "uint256"
        }
      ],
      "name": "getApproved",
      "outputs": [
        {
          "internalType": "address",
          "name": "",
          "type": "address"
        }
      ],
      "stateMutability": "view",
      "type": "function"
    },
    {
      "inputs": [
        {
          "internalType": "address",
          "name": "owner",
          "type": "address"
        },
        {
          "internalType": "address",
          "name": "operator",
          "type": "address"
        }
      ],
      "name": "isApprovedForAll",
      "outputs": [
        {
          "internalType": "bool",
          "name": "",
          "type": "bool"
        }
      ],
      "stateMutability": "view",
      "type": "function"
    },
    {
      "inputs": [],
      "name": "lock",
      "outputs": [],
      "stateMutability": "nonpayable",
      "type": "function"
    },
    {
      "inputs": [],
      "name": "locked",
      "outputs": [
        {
          "internalType": "bool",
          "name": "",
          "type": "bool"
        }
      ],
      "stateMutability": "view",
      "type": "function"
    },
    {
      "inputs": [
        {
          "internalType": "uint256",
          "name": "",
          "type": "uint256"
        }
      ],
      "name": "merkleRootPerSeason",
      "outputs": [
        {
          "internalType": "bytes32",
          "name": "",
          "type": "bytes32"
        }
      ],
      "stateMutability": "view",
      "type": "function"
    },
    {
      "inputs": [
        {
          "internalType": "address",
          "name": "_to",
          "type": "address"
        },
        {
          "internalType": "uint256",
          "name": "_quantity",
          "type": "uint256"
        },
        {
          "internalType": "bytes32[]",
          "name": "_proof",
          "type": "bytes32[]"
        }
      ],
      "name": "mint",
      "outputs": [],
      "stateMutability": "nonpayable",
      "type": "function"
    },
    {
      "inputs": [],
      "name": "name",
      "outputs": [
        {
          "internalType": "string",
          "name": "",
          "type": "string"
        }
      ],
      "stateMutability": "view",
      "type": "function"
    },
    {
      "inputs": [],
      "name": "owner",
      "outputs": [
        {
          "internalType": "address",
          "name": "",
          "type": "address"
        }
      ],
      "stateMutability": "view",
      "type": "function"
    },
    {
      "inputs": [
        {
          "internalType": "uint256",
          "name": "tokenId",
          "type": "uint256"
        }
      ],
      "name": "ownerOf",
      "outputs": [
        {
          "internalType": "address",
          "name": "",
          "type": "address"
        }
      ],
      "stateMutability": "view",
      "type": "function"
    },
    {
      "inputs": [],
      "name": "renounceOwnership",
      "outputs": [],
      "stateMutability": "nonpayable",
      "type": "function"
    },
    {
      "inputs": [
        {
          "internalType": "address",
          "name": "from",
          "type": "address"
        },
        {
          "internalType": "address",
          "name": "to",
          "type": "address"
        },
        {
          "internalType": "uint256",
          "name": "tokenId",
          "type": "uint256"
        }
      ],
      "name": "safeTransferFrom",
      "outputs": [],
      "stateMutability": "nonpayable",
      "type": "function"
    },
    {
      "inputs": [
        {
          "internalType": "address",
          "name": "from",
          "type": "address"
        },
        {
          "internalType": "address",
          "name": "to",
          "type": "address"
        },
        {
          "internalType": "uint256",
          "name": "tokenId",
          "type": "uint256"
        },
        {
          "internalType": "bytes",
          "name": "_data",
          "type": "bytes"
        }
      ],
      "name": "safeTransferFrom",
      "outputs": [],
      "stateMutability": "nonpayable",
      "type": "function"
    },
    {
      "inputs": [
        {
          "internalType": "address",
          "name": "operator",
          "type": "address"
        },
        {
          "internalType": "bool",
          "name": "approved",
          "type": "bool"
        }
      ],
      "name": "setApprovalForAll",
      "outputs": [],
      "stateMutability": "nonpayable",
      "type": "function"
    },
    {
      "inputs": [
        {
          "internalType": "string",
          "name": "_baseTokenUri",
          "type": "string"
        }
      ],
      "name": "setBaseURI",
      "outputs": [],
      "stateMutability": "nonpayable",
      "type": "function"
    },
    {
      "inputs": [
        {
          "internalType": "bytes32",
          "name": "_merkleRoot",
          "type": "bytes32"
        },
        {
          "internalType": "uint256",
          "name": "season",
          "type": "uint256"
        }
      ],
      "name": "setMerkleRoot",
      "outputs": [],
      "stateMutability": "nonpayable",
      "type": "function"
    },
    {
      "inputs": [
        {
          "internalType": "uint256",
          "name": "season",
          "type": "uint256"
        }
      ],
      "name": "setSeason",
      "outputs": [],
      "stateMutability": "nonpayable",
      "type": "function"
    },
    {
      "inputs": [
        {
          "internalType": "bytes4",
          "name": "interfaceId",
          "type": "bytes4"
        }
      ],
      "name": "supportsInterface",
      "outputs": [
        {
          "internalType": "bool",
          "name": "",
          "type": "bool"
        }
      ],
      "stateMutability": "view",
      "type": "function"
    },
    {
      "inputs": [],
      "name": "symbol",
      "outputs": [
        {
          "internalType": "string",
          "name": "",
          "type": "string"
        }
      ],
      "stateMutability": "view",
      "type": "function"
    },
    {
      "inputs": [
        {
          "internalType": "uint256",
          "name": "tokenId",
          "type": "uint256"
        }
      ],
      "name": "tokenURI",
      "outputs": [
        {
          "internalType": "string",
          "name": "",
          "type": "string"
        }
      ],
      "stateMutability": "view",
      "type": "function"
    },
    {
      "inputs": [],
      "name": "totalSupply",
      "outputs": [
        {
          "internalType": "uint256",
          "name": "",
          "type": "uint256"
        }
      ],
      "stateMutability": "view",
      "type": "function"
    },
    {
      "inputs": [
        {
          "internalType": "address",
          "name": "from",
          "type": "address"
        },
        {
          "internalType": "address",
          "name": "to",
          "type": "address"
        },
        {
          "internalType": "uint256",
          "name": "tokenId",
          "type": "uint256"
        }
      ],
      "name": "transferFrom",
      "outputs": [],
      "stateMutability": "nonpayable",
      "type": "function"
    },
    {
      "inputs": [
        {
          "internalType": "address",
          "name": "newOwner",
          "type": "address"
        }
      ],
      "name": "transferOwnership",
      "outputs": [],
      "stateMutability": "nonpayable",
      "type": "function"
    }
  ],
  "transactionHash": "0xb17c47960a87a3bd3f8c403458d87c8036427af10d2e24d9634550f52ef9a090",
  "args": [
    {
      "0": 15,
      "1": 54,
      "2": 143,
      "3": 19,
      "4": 134,
      "5": 113,
      "6": 18,
      "7": 191,
      "8": 139,
      "9": 81,
      "10": 33,
      "11": 2,
      "12": 159,
      "13": 66,
      "14": 245,
      "15": 67,
      "16": 73,
      "17": 181,
      "18": 179,
      "19": 14,
      "20": 252,
      "21": 13,
      "22": 230,
      "23": 232,
      "24": 111,
      "25": 94,
      "26": 197,
      "27": 73,
      "28": 36,
      "29": 90,
      "30": 8,
      "31": 15
    },
    "https://anotherblock.mypinata.cloud/ipfs/QmUvDHmmSZuZgV5S9F7baSryvYAgMY5NF6kJcB45U3Uqyh/",
    33,
    "AnotherPFP",
    "ABPFP"
  ],
  "numDeployments": 1,
  "solcInputHash": "d4313f750f47df1cb5225fed11aae9e4",
  "bytecode": "0x60806040526000600c556000600d60006101000a81548160ff0219169083151502179055503480156200003157600080fd5b506040516200398b3803806200398b83398181016040528101906200005791906200062f565b8181816002908051906020019062000071929190620004df565b5080600390805190602001906200008a929190620004df565b506200009b6200011160201b60201c565b6000819055505050620000c3620000b76200011660201b60201c565b6200011e60201b60201c565b8360099080519060200190620000db929190620004df565b5084600a600080815260200190815260200160002081905550620001063384620001e460201b60201c565b5050505050620008b4565b600090565b600033905090565b6000600860009054906101000a900473ffffffffffffffffffffffffffffffffffffffff16905081600860006101000a81548173ffffffffffffffffffffffffffffffffffffffff021916908373ffffffffffffffffffffffffffffffffffffffff1602179055508173ffffffffffffffffffffffffffffffffffffffff168173ffffffffffffffffffffffffffffffffffffffff167f8be0079c531659141344cd1fd0a4f28419497f9722a3daafe3b4186f6b6457e060405160405180910390a35050565b600080549050600073ffffffffffffffffffffffffffffffffffffffff168373ffffffffffffffffffffffffffffffffffffffff16141562000252576040517f2e07630000000000000000000000000000000000000000000000000000000000815260040160405180910390fd5b60008214156200028e576040517fb562e8dd00000000000000000000000000000000000000000000000000000000815260040160405180910390fd5b620002a36000848385620004d360201b60201c565b81600560008573ffffffffffffffffffffffffffffffffffffffff1673ffffffffffffffffffffffffffffffffffffffff16815260200190815260200160002060000160008282829054906101000a900467ffffffffffffffff160192506101000a81548167ffffffffffffffff021916908367ffffffffffffffff16021790555081600560008573ffffffffffffffffffffffffffffffffffffffff1673ffffffffffffffffffffffffffffffffffffffff16815260200190815260200160002060000160088282829054906101000a900467ffffffffffffffff160192506101000a81548167ffffffffffffffff021916908367ffffffffffffffff160217905550826004600083815260200190815260200160002060000160006101000a81548173ffffffffffffffffffffffffffffffffffffffff021916908373ffffffffffffffffffffffffffffffffffffffff160217905550426004600083815260200190815260200160002060000160146101000a81548167ffffffffffffffff021916908367ffffffffffffffff1602179055506000819050600083820190505b818060010192508573ffffffffffffffffffffffffffffffffffffffff16600073ffffffffffffffffffffffffffffffffffffffff167fddf252ad1be2c89b69c2b068fc378daa952ba7f163c4a11628f55a4df523b3ef60405160405180910390a48082106200044657816000819055505050620004ce6000848385620004d960201b60201c565b505050565b50505050565b50505050565b828054620004ed90620007a5565b90600052602060002090601f0160209004810192826200051157600085556200055d565b82601f106200052c57805160ff19168380011785556200055d565b828001600101855582156200055d579182015b828111156200055c5782518255916020019190600101906200053f565b5b5090506200056c919062000570565b5090565b5b808211156200058b57600081600090555060010162000571565b5090565b6000620005a6620005a08462000725565b620006fc565b905082815260208101848484011115620005bf57600080fd5b620005cc8482856200076f565b509392505050565b600081519050620005e58162000880565b92915050565b600082601f830112620005fd57600080fd5b81516200060f8482602086016200058f565b91505092915050565b60008151905062000629816200089a565b92915050565b600080600080600060a086880312156200064857600080fd5b60006200065888828901620005d4565b955050602086015167ffffffffffffffff8111156200067657600080fd5b6200068488828901620005eb565b9450506040620006978882890162000618565b935050606086015167ffffffffffffffff811115620006b557600080fd5b620006c388828901620005eb565b925050608086015167ffffffffffffffff811115620006e157600080fd5b620006ef88828901620005eb565b9150509295509295909350565b6000620007086200071b565b9050620007168282620007db565b919050565b6000604051905090565b600067ffffffffffffffff82111562000743576200074262000840565b5b6200074e826200086f565b9050602081019050919050565b6000819050919050565b6000819050919050565b60005b838110156200078f57808201518184015260208101905062000772565b838111156200079f576000848401525b50505050565b60006002820490506001821680620007be57607f821691505b60208210811415620007d557620007d462000811565b5b50919050565b620007e6826200086f565b810181811067ffffffffffffffff8211171562000808576200080762000840565b5b80604052505050565b7f4e487b7100000000000000000000000000000000000000000000000000000000600052602260045260246000fd5b7f4e487b7100000000000000000000000000000000000000000000000000000000600052604160045260246000fd5b6000601f19601f8301169050919050565b6200088b816200075b565b81146200089757600080fd5b50565b620008a58162000765565b8114620008b157600080fd5b50565b6130c780620008c46000396000f3fe608060405234801561001057600080fd5b50600436106101a95760003560e01c80637a0101a2116100f9578063b88d4fde11610097578063cf30901211610071578063cf309012146104b8578063e985e9c5146104d6578063f2fde38b14610506578063f83d08ba14610522576101a9565b8063b88d4fde1461044e578063bcb396211461046a578063c87b56dd14610488576101a9565b806395d89b41116100d357806395d89b41146103c8578063a22cb465146103e6578063a9147d4a14610402578063af88fac914610432576101a9565b80637a0101a2146103705780637c382d0b1461038e5780638da5cb5b146103aa576101a9565b806323b872dd116101665780636352211e116101405780636352211e146102ea578063641ce1401461031a57806370a0823114610336578063715018a614610366576101a9565b806323b872dd1461029657806342842e0e146102b257806355f804b3146102ce576101a9565b806301ffc9a7146101ae57806306fdde03146101de578063081812fc146101fc57806308d084621461022c578063095ea7b31461025c57806318160ddd14610278575b600080fd5b6101c860048036038101906101c3919061279b565b61052c565b6040516101d59190612a9d565b60405180910390f35b6101e661060e565b6040516101f39190612ad3565b60405180910390f35b6102166004803603810190610211919061282e565b6106a0565b6040516102239190612a36565b60405180910390f35b6102466004803603810190610241919061282e565b61071c565b6040516102539190612ab8565b60405180910390f35b610276600480360381019061027191906126bc565b610734565b005b610280610839565b60405161028d9190612b35565b60405180910390f35b6102b060048036038101906102ab91906125b6565b610850565b005b6102cc60048036038101906102c791906125b6565b610860565b005b6102e860048036038101906102e391906127ed565b610880565b005b61030460048036038101906102ff919061282e565b6108a2565b6040516103119190612a36565b60405180910390f35b610334600480360381019061032f91906126f8565b6108b8565b005b610350600480360381019061034b9190612551565b610a94565b60405161035d9190612b35565b60405180910390f35b61036e610b64565b005b610378610b78565b6040516103859190612ad3565b60405180910390f35b6103a860048036038101906103a3919061275f565b610c06565b005b6103b2610c2a565b6040516103bf9190612a36565b60405180910390f35b6103d0610c54565b6040516103dd9190612ad3565b60405180910390f35b61040060048036038101906103fb9190612680565b610ce6565b005b61041c60048036038101906104179190612857565b610e5e565b6040516104299190612a9d565b60405180910390f35b61044c6004803603810190610447919061282e565b610e8d565b005b61046860048036038101906104639190612605565b610e9f565b005b610472610f17565b60405161047f9190612b35565b60405180910390f35b6104a2600480360381019061049d919061282e565b610f1d565b6040516104af9190612ad3565b60405180910390f35b6104c0610fbc565b6040516104cd9190612a9d565b60405180910390f35b6104f060048036038101906104eb919061257a565b610fcf565b6040516104fd9190612a9d565b60405180910390f35b610520600480360381019061051b9190612551565b611063565b005b61052a6110e7565b005b60007f80ac58cd000000000000000000000000000000000000000000000000000000007bffffffffffffffffffffffffffffffffffffffffffffffffffffffff1916827bffffffffffffffffffffffffffffffffffffffffffffffffffffffff191614806105f757507f5b5e139f000000000000000000000000000000000000000000000000000000007bffffffffffffffffffffffffffffffffffffffffffffffffffffffff1916827bffffffffffffffffffffffffffffffffffffffffffffffffffffffff1916145b8061060757506106068261110c565b5b9050919050565b60606002805461061d90612dc1565b80601f016020809104026020016040519081016040528092919081815260200182805461064990612dc1565b80156106965780601f1061066b57610100808354040283529160200191610696565b820191906000526020600020905b81548152906001019060200180831161067957829003601f168201915b5050505050905090565b60006106ab82611176565b6106e1576040517fcf4700e400000000000000000000000000000000000000000000000000000000815260040160405180910390fd5b6006600083815260200190815260200160002060009054906101000a900473ffffffffffffffffffffffffffffffffffffffff169050919050565b600a6020528060005260406000206000915090505481565b600061073f826108a2565b90508073ffffffffffffffffffffffffffffffffffffffff168373ffffffffffffffffffffffffffffffffffffffff1614156107a7576040517f943f7b8c00000000000000000000000000000000000000000000000000000000815260040160405180910390fd5b8073ffffffffffffffffffffffffffffffffffffffff166107c66111c4565b73ffffffffffffffffffffffffffffffffffffffff1614610829576107f2816107ed6111c4565b610fcf565b610828576040517fcfb3b94200000000000000000000000000000000000000000000000000000000815260040160405180910390fd5b5b6108348383836111cc565b505050565b600061084361127e565b6001546000540303905090565b61085b838383611283565b505050565b61087b83838360405180602001604052806000815250610e9f565b505050565b610888611739565b806009908051906020019061089e929190612287565b5050565b60006108ad826117b7565b600001519050919050565b600d60009054906101000a900460ff16156108ff576040517f0f2e5b6c00000000000000000000000000000000000000000000000000000000815260040160405180910390fd5b600b6000600c54815260200190815260200160002060008473ffffffffffffffffffffffffffffffffffffffff1673ffffffffffffffffffffffffffffffffffffffff16815260200190815260200160002060009054906101000a900460ff1615610996576040517fddefae2800000000000000000000000000000000000000000000000000000000815260040160405180910390fd5b60006109e082600a6000600c5481526020019081526020016000205486866040516020016109c59291906129e6565b60405160208183030381529060405280519060200120611a42565b905080610a19576040517f3d693ada00000000000000000000000000000000000000000000000000000000815260040160405180910390fd5b6001600b6000600c54815260200190815260200160002060008673ffffffffffffffffffffffffffffffffffffffff1673ffffffffffffffffffffffffffffffffffffffff16815260200190815260200160002060006101000a81548160ff021916908315150217905550610a8e8484611a59565b50505050565b60008073ffffffffffffffffffffffffffffffffffffffff168273ffffffffffffffffffffffffffffffffffffffff161415610afc576040517f8f4eb60400000000000000000000000000000000000000000000000000000000815260040160405180910390fd5b600560008373ffffffffffffffffffffffffffffffffffffffff1673ffffffffffffffffffffffffffffffffffffffff16815260200190815260200160002060000160009054906101000a900467ffffffffffffffff1667ffffffffffffffff169050919050565b610b6c611739565b610b766000611d35565b565b60098054610b8590612dc1565b80601f0160208091040260200160405190810160405280929190818152602001828054610bb190612dc1565b8015610bfe5780601f10610bd357610100808354040283529160200191610bfe565b820191906000526020600020905b815481529060010190602001808311610be157829003601f168201915b505050505081565b610c0e611739565b81600a6000838152602001908152602001600020819055505050565b6000600860009054906101000a900473ffffffffffffffffffffffffffffffffffffffff16905090565b606060038054610c6390612dc1565b80601f0160208091040260200160405190810160405280929190818152602001828054610c8f90612dc1565b8015610cdc5780601f10610cb157610100808354040283529160200191610cdc565b820191906000526020600020905b815481529060010190602001808311610cbf57829003601f168201915b5050505050905090565b610cee6111c4565b73ffffffffffffffffffffffffffffffffffffffff168273ffffffffffffffffffffffffffffffffffffffff161415610d53576040517fb06307db00000000000000000000000000000000000000000000000000000000815260040160405180910390fd5b8060076000610d606111c4565b73ffffffffffffffffffffffffffffffffffffffff1673ffffffffffffffffffffffffffffffffffffffff16815260200190815260200160002060008473ffffffffffffffffffffffffffffffffffffffff1673ffffffffffffffffffffffffffffffffffffffff16815260200190815260200160002060006101000a81548160ff0219169083151502179055508173ffffffffffffffffffffffffffffffffffffffff16610e0d6111c4565b73ffffffffffffffffffffffffffffffffffffffff167f17307eab39ab6107e8899845ad3d59bd9653f200f220920489ca2b5937696c3183604051610e529190612a9d565b60405180910390a35050565b600b6020528160005260406000206020528060005260406000206000915091509054906101000a900460ff1681565b610e95611739565b80600c8190555050565b610eaa848484611283565b610ec98373ffffffffffffffffffffffffffffffffffffffff16611dfb565b15610f1157610eda84848484611e1e565b610f10576040517fd1a57ed600000000000000000000000000000000000000000000000000000000815260040160405180910390fd5b5b50505050565b600c5481565b6060610f2882611176565b610f5e576040517fa14c4b5000000000000000000000000000000000000000000000000000000000815260040160405180910390fd5b6000610f68611f7e565b9050600081511415610f895760405180602001604052806000815250610fb4565b80610f9384612010565b604051602001610fa4929190612a12565b6040516020818303038152906040525b915050919050565b600d60009054906101000a900460ff1681565b6000600760008473ffffffffffffffffffffffffffffffffffffffff1673ffffffffffffffffffffffffffffffffffffffff16815260200190815260200160002060008373ffffffffffffffffffffffffffffffffffffffff1673ffffffffffffffffffffffffffffffffffffffff16815260200190815260200160002060009054906101000a900460ff16905092915050565b61106b611739565b600073ffffffffffffffffffffffffffffffffffffffff168173ffffffffffffffffffffffffffffffffffffffff1614156110db576040517f08c379a00000000000000000000000000000000000000000000000000000000081526004016110d290612af5565b60405180910390fd5b6110e481611d35565b50565b6110ef611739565b6001600d60006101000a81548160ff021916908315150217905550565b60007f01ffc9a7000000000000000000000000000000000000000000000000000000007bffffffffffffffffffffffffffffffffffffffffffffffffffffffff1916827bffffffffffffffffffffffffffffffffffffffffffffffffffffffff1916149050919050565b60008161118161127e565b11158015611190575060005482105b80156111bd575060046000838152602001908152602001600020600001601c9054906101000a900460ff16155b9050919050565b600033905090565b826006600084815260200190815260200160002060006101000a81548173ffffffffffffffffffffffffffffffffffffffff021916908373ffffffffffffffffffffffffffffffffffffffff160217905550818373ffffffffffffffffffffffffffffffffffffffff168273ffffffffffffffffffffffffffffffffffffffff167f8c5be1e5ebec7d5bd14f71427d1e84f3dd0314c0f7b2291e5b200ac8c7c3b92560405160405180910390a4505050565b600090565b600061128e826117b7565b90508373ffffffffffffffffffffffffffffffffffffffff16816000015173ffffffffffffffffffffffffffffffffffffffff16146112f9576040517fa114810000000000000000000000000000000000000000000000000000000000815260040160405180910390fd5b60008473ffffffffffffffffffffffffffffffffffffffff1661131a6111c4565b73ffffffffffffffffffffffffffffffffffffffff1614806113495750611348856113436111c4565b610fcf565b5b8061138e57506113576111c4565b73ffffffffffffffffffffffffffffffffffffffff16611376846106a0565b73ffffffffffffffffffffffffffffffffffffffff16145b9050806113c7576040517f59c896be00000000000000000000000000000000000000000000000000000000815260040160405180910390fd5b600073ffffffffffffffffffffffffffffffffffffffff168473ffffffffffffffffffffffffffffffffffffffff16141561142e576040517fea553b3400000000000000000000000000000000000000000000000000000000815260040160405180910390fd5b61143b85858560016121bd565b611447600084876111cc565b6001600560008773ffffffffffffffffffffffffffffffffffffffff1673ffffffffffffffffffffffffffffffffffffffff16815260200190815260200160002060000160008282829054906101000a900467ffffffffffffffff160392506101000a81548167ffffffffffffffff021916908367ffffffffffffffff1602179055506001600560008673ffffffffffffffffffffffffffffffffffffffff1673ffffffffffffffffffffffffffffffffffffffff16815260200190815260200160002060000160008282829054906101000a900467ffffffffffffffff160192506101000a81548167ffffffffffffffff021916908367ffffffffffffffff1602179055506000600460008581526020019081526020016000209050848160000160006101000a81548173ffffffffffffffffffffffffffffffffffffffff021916908373ffffffffffffffffffffffffffffffffffffffff160217905550428160000160146101000a81548167ffffffffffffffff021916908367ffffffffffffffff16021790555060006001850190506000600460008381526020019081526020016000209050600073ffffffffffffffffffffffffffffffffffffffff168160000160009054906101000a900473ffffffffffffffffffffffffffffffffffffffff1673ffffffffffffffffffffffffffffffffffffffff1614156116c75760005482146116c657878160000160006101000a81548173ffffffffffffffffffffffffffffffffffffffff021916908373ffffffffffffffffffffffffffffffffffffffff16021790555084602001518160000160146101000a81548167ffffffffffffffff021916908367ffffffffffffffff1602179055505b5b505050828473ffffffffffffffffffffffffffffffffffffffff168673ffffffffffffffffffffffffffffffffffffffff167fddf252ad1be2c89b69c2b068fc378daa952ba7f163c4a11628f55a4df523b3ef60405160405180910390a461173285858560016121c3565b5050505050565b6117416111c4565b73ffffffffffffffffffffffffffffffffffffffff1661175f610c2a565b73ffffffffffffffffffffffffffffffffffffffff16146117b5576040517f08c379a00000000000000000000000000000000000000000000000000000000081526004016117ac90612b15565b60405180910390fd5b565b6117bf61230d565b6000829050806117cd61127e565b11611a0b57600054811015611a0a576000600460008381526020019081526020016000206040518060600160405290816000820160009054906101000a900473ffffffffffffffffffffffffffffffffffffffff1673ffffffffffffffffffffffffffffffffffffffff1673ffffffffffffffffffffffffffffffffffffffff1681526020016000820160149054906101000a900467ffffffffffffffff1667ffffffffffffffff1667ffffffffffffffff16815260200160008201601c9054906101000a900460ff16151515158152505090508060400151611a0857600073ffffffffffffffffffffffffffffffffffffffff16816000015173ffffffffffffffffffffffffffffffffffffffff16146118ec578092505050611a3d565b5b600115611a0757818060019003925050600460008381526020019081526020016000206040518060600160405290816000820160009054906101000a900473ffffffffffffffffffffffffffffffffffffffff1673ffffffffffffffffffffffffffffffffffffffff1673ffffffffffffffffffffffffffffffffffffffff1681526020016000820160149054906101000a900467ffffffffffffffff1667ffffffffffffffff1667ffffffffffffffff16815260200160008201601c9054906101000a900460ff1615151515815250509050600073ffffffffffffffffffffffffffffffffffffffff16816000015173ffffffffffffffffffffffffffffffffffffffff1614611a02578092505050611a3d565b6118ed565b5b505b5b6040517fdf2d9b4200000000000000000000000000000000000000000000000000000000815260040160405180910390fd5b919050565b600082611a4f85846121c9565b1490509392505050565b600080549050600073ffffffffffffffffffffffffffffffffffffffff168373ffffffffffffffffffffffffffffffffffffffff161415611ac6576040517f2e07630000000000000000000000000000000000000000000000000000000000815260040160405180910390fd5b6000821415611b01576040517fb562e8dd00000000000000000000000000000000000000000000000000000000815260040160405180910390fd5b611b0e60008483856121bd565b81600560008573ffffffffffffffffffffffffffffffffffffffff1673ffffffffffffffffffffffffffffffffffffffff16815260200190815260200160002060000160008282829054906101000a900467ffffffffffffffff160192506101000a81548167ffffffffffffffff021916908367ffffffffffffffff16021790555081600560008573ffffffffffffffffffffffffffffffffffffffff1673ffffffffffffffffffffffffffffffffffffffff16815260200190815260200160002060000160088282829054906101000a900467ffffffffffffffff160192506101000a81548167ffffffffffffffff021916908367ffffffffffffffff160217905550826004600083815260200190815260200160002060000160006101000a81548173ffffffffffffffffffffffffffffffffffffffff021916908373ffffffffffffffffffffffffffffffffffffffff160217905550426004600083815260200190815260200160002060000160146101000a81548167ffffffffffffffff021916908367ffffffffffffffff1602179055506000819050600083820190505b818060010192508573ffffffffffffffffffffffffffffffffffffffff16600073ffffffffffffffffffffffffffffffffffffffff167fddf252ad1be2c89b69c2b068fc378daa952ba7f163c4a11628f55a4df523b3ef60405160405180910390a4808210611cb157816000819055505050611d3060008483856121c3565b505050565b6000600860009054906101000a900473ffffffffffffffffffffffffffffffffffffffff16905081600860006101000a81548173ffffffffffffffffffffffffffffffffffffffff021916908373ffffffffffffffffffffffffffffffffffffffff1602179055508173ffffffffffffffffffffffffffffffffffffffff168173ffffffffffffffffffffffffffffffffffffffff167f8be0079c531659141344cd1fd0a4f28419497f9722a3daafe3b4186f6b6457e060405160405180910390a35050565b6000808273ffffffffffffffffffffffffffffffffffffffff163b119050919050565b60008373ffffffffffffffffffffffffffffffffffffffff1663150b7a02611e446111c4565b8786866040518563ffffffff1660e01b8152600401611e669493929190612a51565b602060405180830381600087803b158015611e8057600080fd5b505af1925050508015611eb157506040513d601f19601f82011682018060405250810190611eae91906127c4565b60015b611f2b573d8060008114611ee1576040519150601f19603f3d011682016040523d82523d6000602084013e611ee6565b606091505b50600081511415611f23576040517fd1a57ed600000000000000000000000000000000000000000000000000000000815260040160405180910390fd5b805181602001fd5b63150b7a0260e01b7bffffffffffffffffffffffffffffffffffffffffffffffffffffffff1916817bffffffffffffffffffffffffffffffffffffffffffffffffffffffff191614915050949350505050565b606060098054611f8d90612dc1565b80601f0160208091040260200160405190810160405280929190818152602001828054611fb990612dc1565b80156120065780601f10611fdb57610100808354040283529160200191612006565b820191906000526020600020905b815481529060010190602001808311611fe957829003601f168201915b5050505050905090565b60606000821415612058576040518060400160405280600181526020017f300000000000000000000000000000000000000000000000000000000000000081525090506121b8565b600082905060005b6000821461208a57808061207390612e24565b915050600a826120839190612c9c565b9150612060565b60008167ffffffffffffffff8111156120cc577f4e487b7100000000000000000000000000000000000000000000000000000000600052604160045260246000fd5b6040519080825280601f01601f1916602001820160405280156120fe5781602001600182028036833780820191505090505b5090505b600085146121b1576001826121179190612ccd565b9150600a856121269190612e9b565b60306121329190612c46565b60f81b81838151811061216e577f4e487b7100000000000000000000000000000000000000000000000000000000600052603260045260246000fd5b60200101907effffffffffffffffffffffffffffffffffffffffffffffffffffffffffffff1916908160001a905350600a856121aa9190612c9c565b9450612102565b8093505050505b919050565b50505050565b50505050565b60008082905060005b845181101561223a5761222582868381518110612218577f4e487b7100000000000000000000000000000000000000000000000000000000600052603260045260246000fd5b6020026020010151612245565b9150808061223290612e24565b9150506121d2565b508091505092915050565b600081831061225d576122588284612270565b612268565b6122678383612270565b5b905092915050565b600082600052816020526040600020905092915050565b82805461229390612dc1565b90600052602060002090601f0160209004810192826122b557600085556122fc565b82601f106122ce57805160ff19168380011785556122fc565b828001600101855582156122fc579182015b828111156122fb5782518255916020019190600101906122e0565b5b5090506123099190612350565b5090565b6040518060600160405280600073ffffffffffffffffffffffffffffffffffffffff168152602001600067ffffffffffffffff1681526020016000151581525090565b5b80821115612369576000816000905550600101612351565b5090565b600061238061237b84612b75565b612b50565b9050808382526020820190508285602086028201111561239f57600080fd5b60005b858110156123cf57816123b588826124a9565b8452602084019350602083019250506001810190506123a2565b5050509392505050565b60006123ec6123e784612ba1565b612b50565b90508281526020810184848401111561240457600080fd5b61240f848285612d7f565b509392505050565b600061242a61242584612bd2565b612b50565b90508281526020810184848401111561244257600080fd5b61244d848285612d7f565b509392505050565b6000813590506124648161301e565b92915050565b600082601f83011261247b57600080fd5b813561248b84826020860161236d565b91505092915050565b6000813590506124a381613035565b92915050565b6000813590506124b88161304c565b92915050565b6000813590506124cd81613063565b92915050565b6000815190506124e281613063565b92915050565b600082601f8301126124f957600080fd5b81356125098482602086016123d9565b91505092915050565b600082601f83011261252357600080fd5b8135612533848260208601612417565b91505092915050565b60008135905061254b8161307a565b92915050565b60006020828403121561256357600080fd5b600061257184828501612455565b91505092915050565b6000806040838503121561258d57600080fd5b600061259b85828601612455565b92505060206125ac85828601612455565b9150509250929050565b6000806000606084860312156125cb57600080fd5b60006125d986828701612455565b93505060206125ea86828701612455565b92505060406125fb8682870161253c565b9150509250925092565b6000806000806080858703121561261b57600080fd5b600061262987828801612455565b945050602061263a87828801612455565b935050604061264b8782880161253c565b925050606085013567ffffffffffffffff81111561266857600080fd5b612674878288016124e8565b91505092959194509250565b6000806040838503121561269357600080fd5b60006126a185828601612455565b92505060206126b285828601612494565b9150509250929050565b600080604083850312156126cf57600080fd5b60006126dd85828601612455565b92505060206126ee8582860161253c565b9150509250929050565b60008060006060848603121561270d57600080fd5b600061271b86828701612455565b935050602061272c8682870161253c565b925050604084013567ffffffffffffffff81111561274957600080fd5b6127558682870161246a565b9150509250925092565b6000806040838503121561277257600080fd5b6000612780858286016124a9565b92505060206127918582860161253c565b9150509250929050565b6000602082840312156127ad57600080fd5b60006127bb848285016124be565b91505092915050565b6000602082840312156127d657600080fd5b60006127e4848285016124d3565b91505092915050565b6000602082840312156127ff57600080fd5b600082013567ffffffffffffffff81111561281957600080fd5b61282584828501612512565b91505092915050565b60006020828403121561284057600080fd5b600061284e8482850161253c565b91505092915050565b6000806040838503121561286a57600080fd5b60006128788582860161253c565b925050602061288985828601612455565b9150509250929050565b61289c81612d01565b82525050565b6128b36128ae82612d01565b612e6d565b82525050565b6128c281612d13565b82525050565b6128d181612d1f565b82525050565b60006128e282612c03565b6128ec8185612c19565b93506128fc818560208601612d8e565b61290581612f88565b840191505092915050565b600061291b82612c0e565b6129258185612c2a565b9350612935818560208601612d8e565b61293e81612f88565b840191505092915050565b600061295482612c0e565b61295e8185612c3b565b935061296e818560208601612d8e565b80840191505092915050565b6000612987602683612c2a565b915061299282612fa6565b604082019050919050565b60006129aa602083612c2a565b91506129b582612ff5565b602082019050919050565b6129c981612d75565b82525050565b6129e06129db82612d75565b612e91565b82525050565b60006129f282856128a2565b601482019150612a0282846129cf565b6020820191508190509392505050565b6000612a1e8285612949565b9150612a2a8284612949565b91508190509392505050565b6000602082019050612a4b6000830184612893565b92915050565b6000608082019050612a666000830187612893565b612a736020830186612893565b612a8060408301856129c0565b8181036060830152612a9281846128d7565b905095945050505050565b6000602082019050612ab260008301846128b9565b92915050565b6000602082019050612acd60008301846128c8565b92915050565b60006020820190508181036000830152612aed8184612910565b905092915050565b60006020820190508181036000830152612b0e8161297a565b9050919050565b60006020820190508181036000830152612b2e8161299d565b9050919050565b6000602082019050612b4a60008301846129c0565b92915050565b6000612b5a612b6b565b9050612b668282612df3565b919050565b6000604051905090565b600067ffffffffffffffff821115612b9057612b8f612f59565b5b602082029050602081019050919050565b600067ffffffffffffffff821115612bbc57612bbb612f59565b5b612bc582612f88565b9050602081019050919050565b600067ffffffffffffffff821115612bed57612bec612f59565b5b612bf682612f88565b9050602081019050919050565b600081519050919050565b600081519050919050565b600082825260208201905092915050565b600082825260208201905092915050565b600081905092915050565b6000612c5182612d75565b9150612c5c83612d75565b9250827fffffffffffffffffffffffffffffffffffffffffffffffffffffffffffffffff03821115612c9157612c90612ecc565b5b828201905092915050565b6000612ca782612d75565b9150612cb283612d75565b925082612cc257612cc1612efb565b5b828204905092915050565b6000612cd882612d75565b9150612ce383612d75565b925082821015612cf657612cf5612ecc565b5b828203905092915050565b6000612d0c82612d55565b9050919050565b60008115159050919050565b6000819050919050565b60007fffffffff0000000000000000000000000000000000000000000000000000000082169050919050565b600073ffffffffffffffffffffffffffffffffffffffff82169050919050565b6000819050919050565b82818337600083830152505050565b60005b83811015612dac578082015181840152602081019050612d91565b83811115612dbb576000848401525b50505050565b60006002820490506001821680612dd957607f821691505b60208210811415612ded57612dec612f2a565b5b50919050565b612dfc82612f88565b810181811067ffffffffffffffff82111715612e1b57612e1a612f59565b5b80604052505050565b6000612e2f82612d75565b91507fffffffffffffffffffffffffffffffffffffffffffffffffffffffffffffffff821415612e6257612e61612ecc565b5b600182019050919050565b6000612e7882612e7f565b9050919050565b6000612e8a82612f99565b9050919050565b6000819050919050565b6000612ea682612d75565b9150612eb183612d75565b925082612ec157612ec0612efb565b5b828206905092915050565b7f4e487b7100000000000000000000000000000000000000000000000000000000600052601160045260246000fd5b7f4e487b7100000000000000000000000000000000000000000000000000000000600052601260045260246000fd5b7f4e487b7100000000000000000000000000000000000000000000000000000000600052602260045260246000fd5b7f4e487b7100000000000000000000000000000000000000000000000000000000600052604160045260246000fd5b6000601f19601f8301169050919050565b60008160601b9050919050565b7f4f776e61626c653a206e6577206f776e657220697320746865207a65726f206160008201527f6464726573730000000000000000000000000000000000000000000000000000602082015250565b7f4f776e61626c653a2063616c6c6572206973206e6f7420746865206f776e6572600082015250565b61302781612d01565b811461303257600080fd5b50565b61303e81612d13565b811461304957600080fd5b50565b61305581612d1f565b811461306057600080fd5b50565b61306c81612d29565b811461307757600080fd5b50565b61308381612d75565b811461308e57600080fd5b5056fea2646970667358221220274fdcf7bd7855b81fbb38f11128732bb70be18d4c100002a4a0d28f6059f08a64736f6c63430008040033",
  "devdoc": {
    "kind": "dev",
    "methods": {
      "approve(address,uint256)": {
        "details": "See {IERC721-approve}."
      },
      "balanceOf(address)": {
        "details": "See {IERC721-balanceOf}."
      },
      "constructor": {
        "params": {
          "_baseTokenUri": ": base token URI",
          "_merkleRoot": ": Merkle root for verifying allowlist",
          "_name": ": name of the NFT contract",
          "_symbol": ": symbol / ticker of the NFT contract*",
          "_treasureQuantity": ": Amount of initial nfts minted to treasury"
        }
      },
      "getApproved(uint256)": {
        "details": "See {IERC721-getApproved}."
      },
      "isApprovedForAll(address,address)": {
        "details": "See {IERC721-isApprovedForAll}."
      },
      "mint(address,uint256,bytes32[])": {
        "params": {
          "_proof": ": merkle tree proof used to verify allowlisted user",
          "_quantity": ": quantity of nfts to mint",
          "_to": ": address to mint to"
        }
      },
      "name()": {
        "details": "See {IERC721Metadata-name}."
      },
      "owner()": {
        "details": "Returns the address of the current owner."
      },
      "ownerOf(uint256)": {
        "details": "See {IERC721-ownerOf}."
      },
      "renounceOwnership()": {
        "details": "Leaves the contract without owner. It will not be possible to call `onlyOwner` functions anymore. Can only be called by the current owner. NOTE: Renouncing ownership will leave the contract without an owner, thereby removing any functionality that is only available to the owner."
      },
      "safeTransferFrom(address,address,uint256)": {
        "details": "See {IERC721-safeTransferFrom}."
      },
      "safeTransferFrom(address,address,uint256,bytes)": {
        "details": "See {IERC721-safeTransferFrom}."
      },
      "setApprovalForAll(address,bool)": {
        "details": "See {IERC721-setApprovalForAll}."
      },
      "setMerkleRoot(bytes32,uint256)": {
        "params": {
          "_merkleRoot": ": the new merkle root to be set"
        }
      },
      "supportsInterface(bytes4)": {
        "details": "See {IERC165-supportsInterface}."
      },
      "symbol()": {
        "details": "See {IERC721Metadata-symbol}."
      },
      "tokenURI(uint256)": {
        "details": "See {IERC721Metadata-tokenURI}."
      },
      "totalSupply()": {
        "details": "Burned tokens are calculated here, use _totalMinted() if you want to count just minted tokens."
      },
      "transferFrom(address,address,uint256)": {
        "details": "See {IERC721-transferFrom}."
      },
      "transferOwnership(address)": {
        "details": "Transfers ownership of the contract to a new account (`newOwner`). Can only be called by the current owner."
      }
    },
    "version": 1
  },
  "userdoc": {
    "errors": {
      "ApprovalCallerNotOwnerNorApproved()": [
        {
          "notice": "The caller must own the token or be an approved operator."
        }
      ],
      "ApprovalQueryForNonexistentToken()": [
        {
          "notice": "The token does not exist."
        }
      ],
      "ApprovalToCurrentOwner()": [
        {
          "notice": "The caller cannot approve to the current owner."
        }
      ],
      "ApproveToCaller()": [
        {
          "notice": "The caller cannot approve to their own address."
        }
      ],
      "BalanceQueryForZeroAddress()": [
        {
          "notice": "Cannot query the balance for the zero address."
        }
      ],
      "MintToZeroAddress()": [
        {
          "notice": "Cannot mint to the zero address."
        }
      ],
      "MintZeroQuantity()": [
        {
          "notice": "The quantity of tokens minted must be more than zero."
        }
      ],
      "OwnerQueryForNonexistentToken()": [
        {
          "notice": "The token does not exist."
        }
      ],
      "TransferCallerNotOwnerNorApproved()": [
        {
          "notice": "The caller must own the token or be an approved operator."
        }
      ],
      "TransferFromIncorrectOwner()": [
        {
          "notice": "The token must be owned by `from`."
        }
      ],
      "TransferToNonERC721ReceiverImplementer()": [
        {
          "notice": "Cannot safely transfer to a contract that does not implement the ERC721Receiver interface."
        }
      ],
      "TransferToZeroAddress()": [
        {
          "notice": "Cannot transfer to the zero address."
        }
      ],
      "URIQueryForNonexistentToken()": [
        {
          "notice": "The token does not exist."
        }
      ]
    },
    "kind": "user",
    "methods": {
      "constructor": {
        "notice": "AnotherPFP contract constructor"
      },
      "mint(address,uint256,bytes32[])": {
        "notice": "Lets an allowlisted user mint another pfp"
      },
      "setMerkleRoot(bytes32,uint256)": {
        "notice": "Update the merkle root (for allowlist)  Only the contract owner can perform this operation"
      }
    },
    "version": 1
  },
  "storageLayout": {
    "storage": [
      {
        "astId": 1572,
        "contract": "contracts/AnotherPFP.sol:AnotherPFP",
        "label": "_currentIndex",
        "offset": 0,
        "slot": "0",
        "type": "t_uint256"
      },
      {
        "astId": 1574,
        "contract": "contracts/AnotherPFP.sol:AnotherPFP",
        "label": "_burnCounter",
        "offset": 0,
        "slot": "1",
        "type": "t_uint256"
      },
      {
        "astId": 1576,
        "contract": "contracts/AnotherPFP.sol:AnotherPFP",
        "label": "_name",
        "offset": 0,
        "slot": "2",
        "type": "t_string_storage"
      },
      {
        "astId": 1578,
        "contract": "contracts/AnotherPFP.sol:AnotherPFP",
        "label": "_symbol",
        "offset": 0,
        "slot": "3",
        "type": "t_string_storage"
      },
      {
        "astId": 1583,
        "contract": "contracts/AnotherPFP.sol:AnotherPFP",
        "label": "_ownerships",
        "offset": 0,
        "slot": "4",
        "type": "t_mapping(t_uint256,t_struct(TokenOwnership)2978_storage)"
      },
      {
        "astId": 1588,
        "contract": "contracts/AnotherPFP.sol:AnotherPFP",
        "label": "_addressData",
        "offset": 0,
        "slot": "5",
        "type": "t_mapping(t_address,t_struct(AddressData)2987_storage)"
      },
      {
        "astId": 1592,
        "contract": "contracts/AnotherPFP.sol:AnotherPFP",
        "label": "_tokenApprovals",
        "offset": 0,
        "slot": "6",
        "type": "t_mapping(t_uint256,t_address)"
      },
      {
        "astId": 1598,
        "contract": "contracts/AnotherPFP.sol:AnotherPFP",
        "label": "_operatorApprovals",
        "offset": 0,
        "slot": "7",
        "type": "t_mapping(t_address,t_mapping(t_address,t_bool))"
      },
      {
        "astId": 7,
        "contract": "contracts/AnotherPFP.sol:AnotherPFP",
        "label": "_owner",
        "offset": 0,
        "slot": "8",
        "type": "t_address"
      },
      {
        "astId": 1372,
        "contract": "contracts/AnotherPFP.sol:AnotherPFP",
        "label": "baseTokenUri",
        "offset": 0,
        "slot": "9",
        "type": "t_string_storage"
      },
      {
        "astId": 1376,
        "contract": "contracts/AnotherPFP.sol:AnotherPFP",
        "label": "merkleRootPerSeason",
        "offset": 0,
        "slot": "10",
        "type": "t_mapping(t_uint256,t_bytes32)"
      },
      {
        "astId": 1382,
        "contract": "contracts/AnotherPFP.sol:AnotherPFP",
        "label": "addressMintedPerSeason",
        "offset": 0,
        "slot": "11",
        "type": "t_mapping(t_uint256,t_mapping(t_address,t_bool))"
      },
      {
        "astId": 1385,
        "contract": "contracts/AnotherPFP.sol:AnotherPFP",
        "label": "currentSeason",
        "offset": 0,
        "slot": "12",
        "type": "t_uint256"
      },
      {
        "astId": 1388,
        "contract": "contracts/AnotherPFP.sol:AnotherPFP",
        "label": "locked",
        "offset": 0,
        "slot": "13",
        "type": "t_bool"
      }
    ],
    "types": {
      "t_address": {
        "encoding": "inplace",
        "label": "address",
        "numberOfBytes": "20"
      },
      "t_bool": {
        "encoding": "inplace",
        "label": "bool",
        "numberOfBytes": "1"
      },
      "t_bytes32": {
        "encoding": "inplace",
        "label": "bytes32",
        "numberOfBytes": "32"
      },
      "t_mapping(t_address,t_bool)": {
        "encoding": "mapping",
        "key": "t_address",
        "label": "mapping(address => bool)",
        "numberOfBytes": "32",
        "value": "t_bool"
      },
      "t_mapping(t_address,t_mapping(t_address,t_bool))": {
        "encoding": "mapping",
        "key": "t_address",
        "label": "mapping(address => mapping(address => bool))",
        "numberOfBytes": "32",
        "value": "t_mapping(t_address,t_bool)"
      },
      "t_mapping(t_address,t_struct(AddressData)2987_storage)": {
        "encoding": "mapping",
        "key": "t_address",
        "label": "mapping(address => struct IERC721A.AddressData)",
        "numberOfBytes": "32",
        "value": "t_struct(AddressData)2987_storage"
      },
      "t_mapping(t_uint256,t_address)": {
        "encoding": "mapping",
        "key": "t_uint256",
        "label": "mapping(uint256 => address)",
        "numberOfBytes": "32",
        "value": "t_address"
      },
      "t_mapping(t_uint256,t_bytes32)": {
        "encoding": "mapping",
        "key": "t_uint256",
        "label": "mapping(uint256 => bytes32)",
        "numberOfBytes": "32",
        "value": "t_bytes32"
      },
      "t_mapping(t_uint256,t_mapping(t_address,t_bool))": {
        "encoding": "mapping",
        "key": "t_uint256",
        "label": "mapping(uint256 => mapping(address => bool))",
        "numberOfBytes": "32",
        "value": "t_mapping(t_address,t_bool)"
      },
      "t_mapping(t_uint256,t_struct(TokenOwnership)2978_storage)": {
        "encoding": "mapping",
        "key": "t_uint256",
        "label": "mapping(uint256 => struct IERC721A.TokenOwnership)",
        "numberOfBytes": "32",
        "value": "t_struct(TokenOwnership)2978_storage"
      },
      "t_string_storage": {
        "encoding": "bytes",
        "label": "string",
        "numberOfBytes": "32"
      },
      "t_struct(AddressData)2987_storage": {
        "encoding": "inplace",
        "label": "struct IERC721A.AddressData",
        "members": [
          {
            "astId": 2980,
            "contract": "contracts/AnotherPFP.sol:AnotherPFP",
            "label": "balance",
            "offset": 0,
            "slot": "0",
            "type": "t_uint64"
          },
          {
            "astId": 2982,
            "contract": "contracts/AnotherPFP.sol:AnotherPFP",
            "label": "numberMinted",
            "offset": 8,
            "slot": "0",
            "type": "t_uint64"
          },
          {
            "astId": 2984,
            "contract": "contracts/AnotherPFP.sol:AnotherPFP",
            "label": "numberBurned",
            "offset": 16,
            "slot": "0",
            "type": "t_uint64"
          },
          {
            "astId": 2986,
            "contract": "contracts/AnotherPFP.sol:AnotherPFP",
            "label": "aux",
            "offset": 24,
            "slot": "0",
            "type": "t_uint64"
          }
        ],
        "numberOfBytes": "32"
      },
      "t_struct(TokenOwnership)2978_storage": {
        "encoding": "inplace",
        "label": "struct IERC721A.TokenOwnership",
        "members": [
          {
            "astId": 2973,
            "contract": "contracts/AnotherPFP.sol:AnotherPFP",
            "label": "addr",
            "offset": 0,
            "slot": "0",
            "type": "t_address"
          },
          {
            "astId": 2975,
            "contract": "contracts/AnotherPFP.sol:AnotherPFP",
            "label": "startTimestamp",
            "offset": 20,
            "slot": "0",
            "type": "t_uint64"
          },
          {
            "astId": 2977,
            "contract": "contracts/AnotherPFP.sol:AnotherPFP",
            "label": "burned",
            "offset": 28,
            "slot": "0",
            "type": "t_bool"
          }
        ],
        "numberOfBytes": "32"
      },
      "t_uint256": {
        "encoding": "inplace",
        "label": "uint256",
        "numberOfBytes": "32"
      },
      "t_uint64": {
        "encoding": "inplace",
        "label": "uint64",
        "numberOfBytes": "8"
      }
    }
  }
}